{
  "_format": "hh-sol-artifact-1",
  "contractName": "XdAppManagement",
  "sourceName": "contracts/XdAppManagement.sol",
  "abi": [
    {
      "inputs": [
        {
          "internalType": "address",
          "name": "_mainUserAddress",
          "type": "address"
        }
      ],
      "name": "addFollowers",
      "outputs": [],
      "stateMutability": "nonpayable",
      "type": "function"
    },
    {
      "inputs": [
        {
          "internalType": "uint256",
          "name": "_postId",
          "type": "uint256"
        }
      ],
      "name": "addLikes",
      "outputs": [],
      "stateMutability": "nonpayable",
      "type": "function"
    },
    {
      "inputs": [
        {
          "internalType": "string",
          "name": "_title",
          "type": "string"
        },
        {
          "internalType": "string",
          "name": "_description",
          "type": "string"
        }
      ],
      "name": "createPost",
      "outputs": [],
      "stateMutability": "nonpayable",
      "type": "function"
    },
    {
      "inputs": [
        {
          "internalType": "address",
          "name": "_mainUserAddress",
          "type": "address"
        }
      ],
      "name": "getFollowers",
      "outputs": [
        {
          "internalType": "address[]",
          "name": "",
          "type": "address[]"
        }
      ],
      "stateMutability": "view",
      "type": "function"
    },
    {
      "inputs": [],
      "name": "getPosts",
      "outputs": [
        {
          "components": [
            {
              "internalType": "uint256",
              "name": "id",
              "type": "uint256"
            },
            {
              "internalType": "string",
              "name": "title",
              "type": "string"
            },
            {
              "internalType": "string",
              "name": "description",
              "type": "string"
            },
            {
              "internalType": "address",
              "name": "author",
              "type": "address"
            },
            {
              "internalType": "uint256",
              "name": "timestamp",
              "type": "uint256"
            },
            {
              "internalType": "address[]",
              "name": "likes",
              "type": "address[]"
            },
            {
              "internalType": "bool",
              "name": "isRead",
              "type": "bool"
            }
          ],
          "internalType": "struct XdAppManagement.Post[]",
          "name": "",
          "type": "tuple[]"
        }
      ],
      "stateMutability": "view",
      "type": "function"
    },
    {
      "inputs": [],
      "name": "getUnreadPosts",
      "outputs": [
        {
          "components": [
            {
              "internalType": "uint256",
              "name": "id",
              "type": "uint256"
            },
            {
              "internalType": "string",
              "name": "title",
              "type": "string"
            },
            {
              "internalType": "string",
              "name": "description",
              "type": "string"
            },
            {
              "internalType": "address",
              "name": "author",
              "type": "address"
            },
            {
              "internalType": "uint256",
              "name": "timestamp",
              "type": "uint256"
            },
            {
              "internalType": "address[]",
              "name": "likes",
              "type": "address[]"
            },
            {
              "internalType": "bool",
              "name": "isRead",
              "type": "bool"
            }
          ],
          "internalType": "struct XdAppManagement.Post[]",
          "name": "",
          "type": "tuple[]"
        }
      ],
      "stateMutability": "view",
      "type": "function"
    },
    {
      "inputs": [
        {
          "internalType": "address",
          "name": "_userAddress",
          "type": "address"
        }
      ],
      "name": "getUser",
      "outputs": [
        {
          "internalType": "string",
          "name": "",
          "type": "string"
        },
        {
          "internalType": "address",
          "name": "",
          "type": "address"
        },
        {
          "internalType": "address[]",
          "name": "",
          "type": "address[]"
        }
      ],
      "stateMutability": "view",
      "type": "function"
    },
    {
      "inputs": [
        {
          "internalType": "address",
          "name": "_author",
          "type": "address"
        }
      ],
      "name": "getUserPosts",
      "outputs": [
        {
          "components": [
            {
              "internalType": "uint256",
              "name": "id",
              "type": "uint256"
            },
            {
              "internalType": "string",
              "name": "title",
              "type": "string"
            },
            {
              "internalType": "string",
              "name": "description",
              "type": "string"
            },
            {
              "internalType": "address",
              "name": "author",
              "type": "address"
            },
            {
              "internalType": "uint256",
              "name": "timestamp",
              "type": "uint256"
            },
            {
              "internalType": "address[]",
              "name": "likes",
              "type": "address[]"
            },
            {
              "internalType": "bool",
              "name": "isRead",
              "type": "bool"
            }
          ],
          "internalType": "struct XdAppManagement.Post[]",
          "name": "",
          "type": "tuple[]"
        }
      ],
      "stateMutability": "view",
      "type": "function"
    },
    {
      "inputs": [
        {
          "internalType": "uint256",
          "name": "_postId",
          "type": "uint256"
        }
      ],
      "name": "getUsernamePost",
      "outputs": [
        {
          "internalType": "string",
          "name": "",
          "type": "string"
        }
      ],
      "stateMutability": "view",
      "type": "function"
    },
    {
      "inputs": [
        {
          "internalType": "uint256",
          "name": "_postId",
          "type": "uint256"
        }
      ],
      "name": "isReadPost",
      "outputs": [],
      "stateMutability": "nonpayable",
      "type": "function"
    },
    {
      "inputs": [
        {
          "internalType": "string",
          "name": "_username",
          "type": "string"
        }
      ],
      "name": "userRegister",
      "outputs": [],
      "stateMutability": "nonpayable",
      "type": "function"
    }
  ],
  "bytecode": "0x608060405234801561001057600080fd5b506129d8806100206000396000f3fe608060405234801561001057600080fd5b50600436106100a95760003560e01c80637f4bf47f116100715780637f4bf47f14610166578063881d97dc146101825780638ee6f1ad1461019e5780639a2194a9146101ba578063c2fe2022146101ea578063d58206ef1461021a576100a9565b806338536594146100ae578063392338f5146100ca57806341f3004a146100e65780636f77926b14610104578063724714d514610136575b600080fd5b6100c860048036038101906100c39190611c74565b610238565b005b6100e460048036038101906100df9190611de7565b6102bc565b005b6100ee61049f565b6040516100fb9190612164565b60405180910390f35b61011e600480360381019061011991906121b2565b61078f565b60405161012d939291906122a7565b60405180910390f35b610150600480360381019061014b9190611c74565b61097f565b60405161015d91906122ec565b60405180910390f35b610180600480360381019061017b91906121b2565b610d00565b005b61019c6004803603810190610197919061230e565b610e1d565b005b6101b860048036038101906101b39190611c74565b610fe7565b005b6101d460048036038101906101cf91906121b2565b611249565b6040516101e19190612164565b60405180910390f35b61020460048036038101906101ff91906121b2565b611668565b6040516102119190612357565b60405180910390f35b610222611741565b60405161022f9190612164565b60405180910390f35b61024133611a5a565b6002548110610285576040517f08c379a000000000000000000000000000000000000000000000000000000000815260040161027c906123c5565b60405180910390fd5b6000806000838152602001908152602001600020905060018160060160006101000a81548160ff0219169083151502179055505050565b60003390506102ca81611a5a565b61012c82511115610310576040517f08c379a000000000000000000000000000000000000000000000000000000000815260040161030790612457565b60405180910390fd5b6040518060e0016040528060025481526020018481526020018381526020018273ffffffffffffffffffffffffffffffffffffffff168152602001428152602001600067ffffffffffffffff81111561036c5761036b611cbc565b5b60405190808252806020026020018201604052801561039a5781602001602082028036833780820191505090505b5081526020016000151581525060008060025481526020019081526020016000206000820151816000015560208201518160010190816103da9190612683565b5060408201518160020190816103f09190612683565b5060608201518160030160006101000a81548173ffffffffffffffffffffffffffffffffffffffff021916908373ffffffffffffffffffffffffffffffffffffffff1602179055506080820151816004015560a082015181600501908051906020019061045e929190611b2e565b5060c08201518160060160006101000a81548160ff0219169083151502179055509050506002600081548092919061049590612784565b9190505550505050565b6060600060025467ffffffffffffffff8111156104bf576104be611cbc565b5b6040519080825280602002602001820160405280156104f857816020015b6104e5611bb8565b8152602001906001900390816104dd5790505b50905060005b600254811015610787576000808281526020019081526020016000206040518060e00160405290816000820154815260200160018201805461053f906124a6565b80601f016020809104026020016040519081016040528092919081815260200182805461056b906124a6565b80156105b85780601f1061058d576101008083540402835291602001916105b8565b820191906000526020600020905b81548152906001019060200180831161059b57829003601f168201915b505050505081526020016002820180546105d1906124a6565b80601f01602080910402602001604051908101604052809291908181526020018280546105fd906124a6565b801561064a5780601f1061061f5761010080835404028352916020019161064a565b820191906000526020600020905b81548152906001019060200180831161062d57829003601f168201915b505050505081526020016003820160009054906101000a900473ffffffffffffffffffffffffffffffffffffffff1673ffffffffffffffffffffffffffffffffffffffff1673ffffffffffffffffffffffffffffffffffffffff168152602001600482015481526020016005820180548060200260200160405190810160405280929190818152602001828054801561073857602002820191906000526020600020905b8160009054906101000a900473ffffffffffffffffffffffffffffffffffffffff1673ffffffffffffffffffffffffffffffffffffffff16815260200190600101908083116106ee575b505050505081526020016006820160009054906101000a900460ff16151515158152505082828151811061076f5761076e6127cc565b5b602002602001018190525080806001019150506104fe565b508091505090565b60606000606061079e84611a5a565b6000600160008673ffffffffffffffffffffffffffffffffffffffff1673ffffffffffffffffffffffffffffffffffffffff1681526020019081526020016000206040518060600160405290816000820180546107fa906124a6565b80601f0160208091040260200160405190810160405280929190818152602001828054610826906124a6565b80156108735780601f1061084857610100808354040283529160200191610873565b820191906000526020600020905b81548152906001019060200180831161085657829003601f168201915b505050505081526020016001820160009054906101000a900473ffffffffffffffffffffffffffffffffffffffff1673ffffffffffffffffffffffffffffffffffffffff1673ffffffffffffffffffffffffffffffffffffffff1681526020016002820180548060200260200160405190810160405280929190818152602001828054801561095757602002820191906000526020600020905b8160009054906101000a900473ffffffffffffffffffffffffffffffffffffffff1673ffffffffffffffffffffffffffffffffffffffff168152602001906001019080831161090d575b5050505050815250509050806000015181602001518260400151935093509350509193909250565b606060025482106109c5576040517f08c379a00000000000000000000000000000000000000000000000000000000081526004016109bc906123c5565b60405180910390fd5b60008060008481526020019081526020016000206040518060e0016040529081600082015481526020016001820180546109fe906124a6565b80601f0160208091040260200160405190810160405280929190818152602001828054610a2a906124a6565b8015610a775780601f10610a4c57610100808354040283529160200191610a77565b820191906000526020600020905b815481529060010190602001808311610a5a57829003601f168201915b50505050508152602001600282018054610a90906124a6565b80601f0160208091040260200160405190810160405280929190818152602001828054610abc906124a6565b8015610b095780601f10610ade57610100808354040283529160200191610b09565b820191906000526020600020905b815481529060010190602001808311610aec57829003601f168201915b505050505081526020016003820160009054906101000a900473ffffffffffffffffffffffffffffffffffffffff1673ffffffffffffffffffffffffffffffffffffffff1673ffffffffffffffffffffffffffffffffffffffff1681526020016004820154815260200160058201805480602002602001604051908101604052809291908181526020018280548015610bf757602002820191906000526020600020905b8160009054906101000a900473ffffffffffffffffffffffffffffffffffffffff1673ffffffffffffffffffffffffffffffffffffffff1681526020019060010190808311610bad575b505050505081526020016006820160009054906101000a900460ff16151515158152505090506000816060015190506000600160008373ffffffffffffffffffffffffffffffffffffffff1673ffffffffffffffffffffffffffffffffffffffff1681526020019081526020016000206000018054610c75906124a6565b80601f0160208091040260200160405190810160405280929190818152602001828054610ca1906124a6565b8015610cee5780601f10610cc357610100808354040283529160200191610cee565b820191906000526020600020905b815481529060010190602001808311610cd157829003601f168201915b50505050509050809350505050919050565b610d0981611a5a565b8073ffffffffffffffffffffffffffffffffffffffff163373ffffffffffffffffffffffffffffffffffffffff1603610d77576040517f08c379a0000000000000000000000000000000000000000000000000000000008152600401610d6e90612847565b60405180910390fd5b600160008273ffffffffffffffffffffffffffffffffffffffff1673ffffffffffffffffffffffffffffffffffffffff168152602001908152602001600020600201339080600181540180825580915050600190039060005260206000200160009091909190916101000a81548173ffffffffffffffffffffffffffffffffffffffff021916908373ffffffffffffffffffffffffffffffffffffffff16021790555050565b6000600160003373ffffffffffffffffffffffffffffffffffffffff1673ffffffffffffffffffffffffffffffffffffffff1681526020019081526020016000206000018054610e6c906124a6565b905014610eae576040517f08c379a0000000000000000000000000000000000000000000000000000000008152600401610ea5906128b3565b60405180910390fd5b60405180606001604052808281526020013373ffffffffffffffffffffffffffffffffffffffff168152602001600067ffffffffffffffff811115610ef657610ef5611cbc565b5b604051908082528060200260200182016040528015610f245781602001602082028036833780820191505090505b50815250600160003373ffffffffffffffffffffffffffffffffffffffff1673ffffffffffffffffffffffffffffffffffffffff1681526020019081526020016000206000820151816000019081610f7c9190612683565b5060208201518160010160006101000a81548173ffffffffffffffffffffffffffffffffffffffff021916908373ffffffffffffffffffffffffffffffffffffffff1602179055506040820151816002019080519060200190610fe0929190611b2e565b5090505050565b610ff033611a5a565b6002548110611034576040517f08c379a000000000000000000000000000000000000000000000000000000000815260040161102b906123c5565b60405180910390fd5b6000806000838152602001908152602001600020905060005b81600501805490508110156111de573373ffffffffffffffffffffffffffffffffffffffff16826005018281548110611089576110886127cc565b5b9060005260206000200160009054906101000a900473ffffffffffffffffffffffffffffffffffffffff1673ffffffffffffffffffffffffffffffffffffffff16036111d15781600501600183600501805490506110e791906128d3565b815481106110f8576110f76127cc565b5b9060005260206000200160009054906101000a900473ffffffffffffffffffffffffffffffffffffffff16826005018281548110611139576111386127cc565b5b9060005260206000200160006101000a81548173ffffffffffffffffffffffffffffffffffffffff021916908373ffffffffffffffffffffffffffffffffffffffff1602179055508160050180548061119557611194612907565b5b6001900381819060005260206000200160006101000a81549073ffffffffffffffffffffffffffffffffffffffff021916905590555050611246565b808060010191505061104d565b5080600501339080600181540180825580915050600190039060005260206000200160009091909190916101000a81548173ffffffffffffffffffffffffffffffffffffffff021916908373ffffffffffffffffffffffffffffffffffffffff160217905550505b50565b606061125482611a5a565b600060025467ffffffffffffffff81111561127257611271611cbc565b5b6040519080825280602002602001820160405280156112ab57816020015b611298611bb8565b8152602001906001900390816112905790505b5090506000805b6002548110156115b2578473ffffffffffffffffffffffffffffffffffffffff1660008083815260200190815260200160002060030160009054906101000a900473ffffffffffffffffffffffffffffffffffffffff1673ffffffffffffffffffffffffffffffffffffffff16036115a5576000808281526020019081526020016000206040518060e00160405290816000820154815260200160018201805461135b906124a6565b80601f0160208091040260200160405190810160405280929190818152602001828054611387906124a6565b80156113d45780601f106113a9576101008083540402835291602001916113d4565b820191906000526020600020905b8154815290600101906020018083116113b757829003601f168201915b505050505081526020016002820180546113ed906124a6565b80601f0160208091040260200160405190810160405280929190818152602001828054611419906124a6565b80156114665780601f1061143b57610100808354040283529160200191611466565b820191906000526020600020905b81548152906001019060200180831161144957829003601f168201915b505050505081526020016003820160009054906101000a900473ffffffffffffffffffffffffffffffffffffffff1673ffffffffffffffffffffffffffffffffffffffff1673ffffffffffffffffffffffffffffffffffffffff168152602001600482015481526020016005820180548060200260200160405190810160405280929190818152602001828054801561155457602002820191906000526020600020905b8160009054906101000a900473ffffffffffffffffffffffffffffffffffffffff1673ffffffffffffffffffffffffffffffffffffffff168152602001906001019080831161150a575b505050505081526020016006820160009054906101000a900460ff16151515158152505083838151811061158b5761158a6127cc565b5b602002602001018190525081806115a190612784565b9250505b80806001019150506112b2565b5060008167ffffffffffffffff8111156115cf576115ce611cbc565b5b60405190808252806020026020018201604052801561160857816020015b6115f5611bb8565b8152602001906001900390816115ed5790505b50905060005b8281101561165c57838181518110611629576116286127cc565b5b6020026020010151828281518110611644576116436127cc565b5b6020026020010181905250808060010191505061160e565b50809350505050919050565b606061167382611a5a565b600160008373ffffffffffffffffffffffffffffffffffffffff1673ffffffffffffffffffffffffffffffffffffffff16815260200190815260200160002060020180548060200260200160405190810160405280929190818152602001828054801561173557602002820191906000526020600020905b8160009054906101000a900473ffffffffffffffffffffffffffffffffffffffff1673ffffffffffffffffffffffffffffffffffffffff16815260200190600101908083116116eb575b50505050509050919050565b6060600060025467ffffffffffffffff81111561176157611760611cbc565b5b60405190808252806020026020018201604052801561179a57816020015b611787611bb8565b81526020019060019003908161177f5790505b50905060005b600254811015611a525760008082815260200190815260200160002060060160009054906101000a900460ff1615611a45576000808281526020019081526020016000206040518060e001604052908160008201548152602001600182018054611809906124a6565b80601f0160208091040260200160405190810160405280929190818152602001828054611835906124a6565b80156118825780601f1061185757610100808354040283529160200191611882565b820191906000526020600020905b81548152906001019060200180831161186557829003601f168201915b5050505050815260200160028201805461189b906124a6565b80601f01602080910402602001604051908101604052809291908181526020018280546118c7906124a6565b80156119145780601f106118e957610100808354040283529160200191611914565b820191906000526020600020905b8154815290600101906020018083116118f757829003601f168201915b505050505081526020016003820160009054906101000a900473ffffffffffffffffffffffffffffffffffffffff1673ffffffffffffffffffffffffffffffffffffffff1673ffffffffffffffffffffffffffffffffffffffff1681526020016004820154815260200160058201805480602002602001604051908101604052809291908181526020018280548015611a0257602002820191906000526020600020905b8160009054906101000a900473ffffffffffffffffffffffffffffffffffffffff1673ffffffffffffffffffffffffffffffffffffffff16815260200190600101908083116119b8575b505050505081526020016006820160009054906101000a900460ff161515151581525050828281518110611a3957611a386127cc565b5b60200260200101819052505b80806001019150506117a0565b508091505090565b600073ffffffffffffffffffffffffffffffffffffffff16600160008373ffffffffffffffffffffffffffffffffffffffff1673ffffffffffffffffffffffffffffffffffffffff16815260200190815260200160002060010160009054906101000a900473ffffffffffffffffffffffffffffffffffffffff1673ffffffffffffffffffffffffffffffffffffffff1603611b2b576040517f08c379a0000000000000000000000000000000000000000000000000000000008152600401611b2290612982565b60405180910390fd5b50565b828054828255906000526020600020908101928215611ba7579160200282015b82811115611ba65782518260006101000a81548173ffffffffffffffffffffffffffffffffffffffff021916908373ffffffffffffffffffffffffffffffffffffffff16021790555091602001919060010190611b4e565b5b509050611bb49190611c0d565b5090565b6040518060e00160405280600081526020016060815260200160608152602001600073ffffffffffffffffffffffffffffffffffffffff16815260200160008152602001606081526020016000151581525090565b5b80821115611c26576000816000905550600101611c0e565b5090565b6000604051905090565b600080fd5b600080fd5b6000819050919050565b611c5181611c3e565b8114611c5c57600080fd5b50565b600081359050611c6e81611c48565b92915050565b600060208284031215611c8a57611c89611c34565b5b6000611c9884828501611c5f565b91505092915050565b600080fd5b600080fd5b6000601f19601f8301169050919050565b7f4e487b7100000000000000000000000000000000000000000000000000000000600052604160045260246000fd5b611cf482611cab565b810181811067ffffffffffffffff82111715611d1357611d12611cbc565b5b80604052505050565b6000611d26611c2a565b9050611d328282611ceb565b919050565b600067ffffffffffffffff821115611d5257611d51611cbc565b5b611d5b82611cab565b9050602081019050919050565b82818337600083830152505050565b6000611d8a611d8584611d37565b611d1c565b905082815260208101848484011115611da657611da5611ca6565b5b611db1848285611d68565b509392505050565b600082601f830112611dce57611dcd611ca1565b5b8135611dde848260208601611d77565b91505092915050565b60008060408385031215611dfe57611dfd611c34565b5b600083013567ffffffffffffffff811115611e1c57611e1b611c39565b5b611e2885828601611db9565b925050602083013567ffffffffffffffff811115611e4957611e48611c39565b5b611e5585828601611db9565b9150509250929050565b600081519050919050565b600082825260208201905092915050565b6000819050602082019050919050565b611e9481611c3e565b82525050565b600081519050919050565b600082825260208201905092915050565b60005b83811015611ed4578082015181840152602081019050611eb9565b60008484015250505050565b6000611eeb82611e9a565b611ef58185611ea5565b9350611f05818560208601611eb6565b611f0e81611cab565b840191505092915050565b600073ffffffffffffffffffffffffffffffffffffffff82169050919050565b6000611f4482611f19565b9050919050565b611f5481611f39565b82525050565b600081519050919050565b600082825260208201905092915050565b6000819050602082019050919050565b6000611f928383611f4b565b60208301905092915050565b6000602082019050919050565b6000611fb682611f5a565b611fc08185611f65565b9350611fcb83611f76565b8060005b83811015611ffc578151611fe38882611f86565b9750611fee83611f9e565b925050600181019050611fcf565b5085935050505092915050565b60008115159050919050565b61201e81612009565b82525050565b600060e08301600083015161203c6000860182611e8b565b50602083015184820360208601526120548282611ee0565b9150506040830151848203604086015261206e8282611ee0565b91505060608301516120836060860182611f4b565b5060808301516120966080860182611e8b565b5060a083015184820360a08601526120ae8282611fab565b91505060c08301516120c360c0860182612015565b508091505092915050565b60006120da8383612024565b905092915050565b6000602082019050919050565b60006120fa82611e5f565b6121048185611e6a565b93508360208202850161211685611e7b565b8060005b85811015612152578484038952815161213385826120ce565b945061213e836120e2565b925060208a0199505060018101905061211a565b50829750879550505050505092915050565b6000602082019050818103600083015261217e81846120ef565b905092915050565b61218f81611f39565b811461219a57600080fd5b50565b6000813590506121ac81612186565b92915050565b6000602082840312156121c8576121c7611c34565b5b60006121d68482850161219d565b91505092915050565b600082825260208201905092915050565b60006121fb82611e9a565b61220581856121df565b9350612215818560208601611eb6565b61221e81611cab565b840191505092915050565b61223281611f39565b82525050565b600082825260208201905092915050565b600061225482611f5a565b61225e8185612238565b935061226983611f76565b8060005b8381101561229a5781516122818882611f86565b975061228c83611f9e565b92505060018101905061226d565b5085935050505092915050565b600060608201905081810360008301526122c181866121f0565b90506122d06020830185612229565b81810360408301526122e28184612249565b9050949350505050565b6000602082019050818103600083015261230681846121f0565b905092915050565b60006020828403121561232457612323611c34565b5b600082013567ffffffffffffffff81111561234257612341611c39565b5b61234e84828501611db9565b91505092915050565b600060208201905081810360008301526123718184612249565b905092915050565b7f506f737420646f6573206e6f7420657869737400000000000000000000000000600082015250565b60006123af6013836121df565b91506123ba82612379565b602082019050919050565b600060208201905081810360008301526123de816123a2565b9050919050565b7f4465736372697074696f6e2065786365656473206d6178696d756d206c656e6760008201527f7468206f66203330302063686172616374657273000000000000000000000000602082015250565b60006124416034836121df565b915061244c826123e5565b604082019050919050565b6000602082019050818103600083015261247081612434565b9050919050565b7f4e487b7100000000000000000000000000000000000000000000000000000000600052602260045260246000fd5b600060028204905060018216806124be57607f821691505b6020821081036124d1576124d0612477565b5b50919050565b60008190508160005260206000209050919050565b60006020601f8301049050919050565b600082821b905092915050565b6000600883026125397fffffffffffffffffffffffffffffffffffffffffffffffffffffffffffffffff826124fc565b61254386836124fc565b95508019841693508086168417925050509392505050565b6000819050919050565b600061258061257b61257684611c3e565b61255b565b611c3e565b9050919050565b6000819050919050565b61259a83612565565b6125ae6125a682612587565b848454612509565b825550505050565b600090565b6125c36125b6565b6125ce818484612591565b505050565b5b818110156125f2576125e76000826125bb565b6001810190506125d4565b5050565b601f82111561263757612608816124d7565b612611846124ec565b81016020851015612620578190505b61263461262c856124ec565b8301826125d3565b50505b505050565b600082821c905092915050565b600061265a6000198460080261263c565b1980831691505092915050565b60006126738383612649565b9150826002028217905092915050565b61268c82611e9a565b67ffffffffffffffff8111156126a5576126a4611cbc565b5b6126af82546124a6565b6126ba8282856125f6565b600060209050601f8311600181146126ed57600084156126db578287015190505b6126e58582612667565b86555061274d565b601f1984166126fb866124d7565b60005b82811015612723578489015182556001820191506020850194506020810190506126fe565b86831015612740578489015161273c601f891682612649565b8355505b6001600288020188555050505b505050505050565b7f4e487b7100000000000000000000000000000000000000000000000000000000600052601160045260246000fd5b600061278f82611c3e565b91507fffffffffffffffffffffffffffffffffffffffffffffffffffffffffffffffff82036127c1576127c0612755565b5b600182019050919050565b7f4e487b7100000000000000000000000000000000000000000000000000000000600052603260045260246000fd5b7f596f752063616e6e6f7420666f6c6c6f7720796f757273656c662e0000000000600082015250565b6000612831601b836121df565b915061283c826127fb565b602082019050919050565b6000602082019050818103600083015261286081612824565b9050919050565b7f5573657220616c72656164792065786973740000000000000000000000000000600082015250565b600061289d6012836121df565b91506128a882612867565b602082019050919050565b600060208201905081810360008301526128cc81612890565b9050919050565b60006128de82611c3e565b91506128e983611c3e565b925082820390508181111561290157612900612755565b5b92915050565b7f4e487b7100000000000000000000000000000000000000000000000000000000600052603160045260246000fd5b7f5573657220646f6573206e6f7420657869737400000000000000000000000000600082015250565b600061296c6013836121df565b915061297782612936565b602082019050919050565b6000602082019050818103600083015261299b8161295f565b905091905056fea2646970667358221220c1edaf7c591e47279a9fe063d1d51ef29c3b259b8fe7ec4940d9d64f87edebb564736f6c63430008180033",
  "linkReferences": {},
  "deployedLinkReferences": {}
}